P608054000300 1 11266012628DEFATUpper Oligocene (Chattian) Discoaster woodringii                                                    DEFAT 
P608054000300 1 11434014067DEFATUpper Oligocene (Chattian) Clausicoccus fenestratus                                                 DEFAT 
P608054000300 1 11446014169DEFATUpper Oligocene (Chattian) Zygrhablithus bijugatus                                                  DEFAT 
P608054000300 1 11465914340DEFATUpper Oligocene (Chattian) Sphenolithus delphix                                                     DEFAT 
P608054000300 1 11466014341DEFATUpper Oligocene (Chattian) Dictyococcites bisectus increase                                         DEFAT 
P608054000300 1 11475014421DEFATUpper Oligocene (Chattian) Sphenolithus ciperoensis                                                 DEFAT 
P608054000300 1 11481014475DEFATLower Oligocene (Rupelian) Helicosphaera compacta                                                   DEFAT 
P608054000300 1 11494014592DEFATUpper Oligocene (Chattian) Globigerina angulisuturalis                                              DEFAT 
P608054000300 1 11583015349DEFATUpper Oligocene (Chattian) Sphenolithus distentus                                                   DEFAT 
P608054000300 1 11619015668DEFATUpper Oligocene (Chattian) Sphenolithus predistentus                                                DEFAT 
P608054000301 1 11475900000POSATOligocene                                                                                           DEFIN5
P608054000301 1 11479000000POSINOligocene                                                                                           DEFAT6
P608054000301 1 11494000000DEFATUpper Oligocene (Chattian) Globigerina angulisuturalis                                              DEFIN6
P608054001300 2 31014110141DEFATLower Oligocene (Rupelian) Chiloguembelina cubensis                                                 DEFAT4
P608054001300 2 31023010230POSATLower Oligocene (Rupelian) Turborotalia increbescens                                                DEFAT4
P608054001300 2 31026010260DEFATUpper Eocene (Priabonian) Turborotalia cerroazulensis cocoaensis                                    DEFAT4
P608054001300 2 31035110351POSATUpper Eocene (Priabonian) Hantkenina alabamensis                                                    DEFAT4
P608054001300 2 31047010470POSINUpper Oligocene (Chattian) Paragloborotalia opima opima                                             DEFAT5
P608054001300 2 31083010830DEFINEocene                                                                                              DEFAT5
P608054001300 3 31014110141POSINLower Oligocene (Rupelian) Reticulofenestra hillae                                                  DEFAT 
P608054001300 3 31038010380POSINLower Oligocene (Rupelian) Ericsonia formosa                                                        DEFAT 
P608054001300 3 31038110381POSATUpper Eocene (Priabonian) Discoaster barbadiensis                                                   DEFAT 
P608054001300 3 31053010530DEFATUpper Eocene (Priabonian) Cribrocentrum reticulatum                                                 DEFAT 
P608054001300 3 31071010710DEFATLower Oligocene (Rupelian) Ismolithus recurvus                                                      DEFAT 
P608054001300 4 31093410934POSINLower Oligocene (Rupelian) Ericsonia formosa                                                        DEFAT 
P608054001300 4 31100411004POSATUpper Eocene (Priabonian) Discoaster barbadiensis                                                   DEFAT 
P608054001300 4 31102511025DEFATUpper Eocene (Priabonian) Discoaster saipanensis                                                    DEFAT 
P608054001300 4 31125200000DEFATMiddle Eocene (Bartonian) Sphenolithus furcatolithoides                                             DEFAT 
P608054001300 4 31147800000DEFATMiddle Eocene (Bartonian) Chiasmolithus solitus                                                     DEFAT 
P608054001300 4 31150600000POSATMiddle Eocene (Lutetian) Discoaster lodoensis                                                       DEFAT 
P608054001300 4 31173800000POSATMiddle Eocene (Bartonian) Sphenolithus spiniger                                                     DEFAT 
P608054001301 2 31128011280POSINLower Oligocene (Rupelian) Turborotalia ampliapertura                                               DEFIN4
P608054001301 2 31140011400POSATEocene                                                                                              DEFIN4
P608054001301 2 31149011489POSINMiddle Eocene (Bartonian) Truncorotaloides rohri                                                    DEFIN4
P608054001301 2 31167011669POSINMiddle Eocene (Lutetian) Morozovella aragonensis                                                    DEFIN4
P608054001301 2 31185011849DEFATLower Eocene (Ypresian) Morozovella quetra                                                          DEFIN4
P608054001301 2 31353013520DEFINUpper Paleocene (Thanetian) Planulorotalites pseudomenardii                                         DEFAT4
P608054001301 3 31170111700DEFATMiddle Eocene (Bartonian) Chiasmolithus grandis                                                     DEFAT 
P608054001301 3 31179011789DEFINMiddle Eocene (Bartonian) Pemma balium                                                              DEFAT 
P608054001301 3 31185011849DEFATLower Eocene (Ypresian) Rhabdosphaera inflata                                                       DEFAT 
P608054001301 3 31191011909DEFATMiddle Eocene (Lutetian) Discoaster lodoensis                                                       DEFAT 
P608054001301 3 31200011999POSATLower Eocene (Ypresian) Tribrachiatus contortus                                                     DEFAT 
P608054001301 3 31209012089DEFATLower Eocene (Ypresian) Discoaster multiradiatus                                                    DEFAT 
P608054001301 3 31221012209POSATLower Eocene (Ypresian) Fasciculithus tympaniformis                                                 DEFAT 
P608054001301 4 31183611835DEFINUpper Eocene (Priabonian) Discoaster barbadiensis                                                   DEFAT 
P608054001301 4 31232712326POSATMiddle Eocene (Lutetian) Discoaster lodoensis                                                       DEFAT 
P608054001301 4 31391113880DEFATLower Eocene (Ypresian) Discoaster multiradiatus                                                    DEFAT 
P608054001302 2 61666016397POSATLower Paleocene (Danian) Parasubbotina pseudobulloides                                              DEFAT5
P608054001302 2 61684016563POSATUpper Paleocene (Thanetian) Subbotina triloculinoides                                               POSAT5
P608054001302 2 61687016590POSATLower Paleocene (Danian) Praemurica uncinata                                                        DEFAT5
P608054000100 2 3 956009560POSATUpper Oligocene (Chattian) Globigerina sellii                                                       DEFAT5
P608054000100 2 3 980009800DEFATUpper Eocene (Priabonian) Turborotalia cerroazulensis cocoaensis                                    DEFAT5
P608054000100 2 31010010100DEFINUpper Eocene (Priabonian) Globorotalia pomeroli                                                     DEFAT5
P608054000100 2 31037010370POSATMiddle Eocene (Bartonian) Orbulinoides beckmanni                                                    DEFAT5
P608054000100 2 31075910759DEFATMiddle Eocene (Bartonian) Turborotalia frontosa                                                     DEFAT5
P608054000100 2 31076010760DEFATMiddle Eocene (Lutetian) Globigerinoides higginsi                                                   DEFAT5
P608054000100 2 31088010880POSATLower Eocene (Ypresian) Acarinina soldadoensis                                                      DEFIN5
P608054000100 2 31096910969POSATLower Eocene (Ypresian) Morozovella quetra                                                          DEFIN5
P608054000100 2 31097010970POSATLower Eocene (Ypresian) Subbotina velascoensis                                                      DEFIN5
P608054000100 2 31100011000POSATLower Eocene (Ypresian) Morozovella lensiformis                                                     DEFIN5
P608054000100 2 31103011030DEFATLower Eocene (Ypresian) Morozovella rex / subbotinae                                                DEFIN5
P608054000100 2 31109011090DEFATLower Eocene (Ypresian) Subbotina velascoensis                                                      DEFIN5
P608054000100 3 3 959009590DEFINUpper Oligocene (Chattian) Paragloborotalia opima opima                                             DEFAT5
P608054000100 3 31061010610DEFINLower Oligocene (Rupelian) Textularia mississippiensis seligi                                       DEFAT5
P608054000100 3 31069310693DEFATLower Oligocene (Rupelian) Ericsonia formosa                                                        DEFAT5
P608054000100 3 31069410694DEFATLower Oligocene (Rupelian) Cibicides mississippiensis                                               DEFAT5
P608054000100 3 31091010910DEFINUpper (Late) Eocene                                                                                 DEFAT5
P608054000100 3 31091710917DEFINUpper Eocene (Priabonian) Globigerinatheka semiinvoluta                                             DEFAT5
P608054000100 3 31100011000DEFATMiddle Eocene                                                                                       DEFAT5
P608054000100 4 3 929109291DEFATUpper Oligocene (Chattian) Sphenolithus predistentus                                                DEFAT 
P608054000100 4 3 971709717DEFATLower Oligocene (Rupelian) Helicosphaera compacta                                                   DEFAT 
P608054000100 4 31069310693POSINLower Oligocene (Rupelian) Reticulofenestra umbilica                                                DEFAT 
P608054000100 4 31072210722POSATUpper Eocene (Priabonian) Pemma papillatum                                                          DEFAT 
P608054000100 4 31092210922POSATUpper Eocene (Priabonian) Discoaster barbadiensis                                                   DEFAT 
P608054000100 4 31094010940POSATUpper Eocene (Priabonian) Discoaster barbadiensis                                                   DEFAT 
P608054000100 4 31103011030DEFINMiddle Eocene (Bartonian) Chiasmolithus grandis                                                     DEFAT 
P608054000100 4 31103111031DEFINMiddle Eocene (Bartonian) Sphenolithus furcatolithoides                                             DEFAT 
P608054000100 4 31106811068DEFINMiddle Eocene (Bartonian) Sphenolithus spiniger                                                     DEFAT 
P608054000100 4 31108211082POSATMiddle Eocene (Lutetian) Blackites gladius                                                          DEFAT 
P608054000100 4 31120211202DEFATMiddle Eocene (Lutetian) Discoaster lodoensis                                                       DEFAT 
P608054000100 4 31120311203DEFATLower Eocene (Ypresian) Rhabdosphaera inflata                                                       DEFAT 
P608054000100 4 31120411204POSATLower Eocene (Ypresian) Toweius crassus                                                             DEFAT 
P608054000600 2 21036010360DEFATUpper Oligocene (Chattian) Globigerina ciperoensis ciperoensis                                      DEFIN5
P608054000600 2 21048010480DEFATUpper Oligocene (Chattian) Globigerina angulisuturalis                                              DEFIN5
P608054000600 3 21033010330DEFATUpper Oligocene (Chattian) Dictyococcites bisectus                                                  DEFAT 
P608054000600 3 21036010360DEFATUpper Oligocene (Chattian) Sphenolithus ciperoensis                                                 DEFAT 
P608054000600 3 21048010480POSATUpper Oligocene (Chattian) Sphenolithus distentus                                                   DEFAT 
P608054003600 1 11202812027DEFATUpper Oligocene (Chattian) Sphenolithus predistentus                                                DEFIN5
P608054003600 1 11202912028DEFATLower Oligocene (Rupelian) Helicosphaera compacta                                                   DEFIN5
P608054003600 1 11203012029DEFATLower Oligocene (Rupelian) Reticulofenestra circus                                                  DEFIN5
P608054003600 1 11208512084DEFATLower Oligocene (Rupelian) Sphenolithus akropodus                                                   DEFIN5
P608054003600 1 11212012119DEFATLower Oligocene (Rupelian) Reticulofenestra umbilica                                                DEFIN5
P608054003600 1 11215012149DEFATLower Oligocene (Rupelian) Lanternithus minutus                                                     DEFIN5
P608054003600 1 11216012159DEFATLower Oligocene (Rupelian) Ericsonia formosa                                                        DEFIN5
P608054003600 1 11224012239DEFATMiddle Eocene (Bartonian) Chiasmolithus grandis                                                     DEFIN4
P608054003600 1 11227012269DEFATMiddle Eocene (Bartonian) Sphenolithus spiniger                                                     DEFIN4
P608054003600 1 11229612295DEFATMiddle Eocene (Bartonian) Acarinina bullbrooki                                                      DEFIN4
P608054003600 1 11229712296POSATMiddle Eocene (Bartonian) Radiolarian acme A                                                        DEFIN4
P608054003600 1 11229812297DEFATMiddle Eocene (Lutetian) Nannotetrina fulgens                                                       DEFIN4
P608054003600 1 11229912298DEFATMiddle Eocene (Lutetian) Discoaster lodoensis                                                       DEFIN4
P608054003600 1 11230012299DEFATLower Eocene (Ypresian) Rhabdosphaera inflata                                                       DEFIN4
P608054003600 1 11235912357POSINLower Eocene (Ypresian) Radiolarian acme B                                                          DEFIN4
P608054003600 1 11239012388DEFATLower Eocene (Ypresian) Tribrachiatus bramlettei                                                    DEFIN4
P608054003600 1 11254012538DEFATLower Eocene (Ypresian) Acarinina soldadoensis                                                      DEFIN4
P608054003600 1 11257012568DEFATLower Eocene (Ypresian) Acarinina wilcoxensis                                                       DEFIN4
P608054003600 1 11262912626DEFATLower Eocene (Ypresian) Morozovella formosa formosa                                                 DEFIN4
P608054003600 1 11263012627DEFATLower Eocene (Ypresian) Morozovella aequa                                                           DEFIN4
P608054003600 1 11296012945POSATLower Eocene (Ypresian) Apectodinium homomorphum acme/PETM                                          DEFIN4
P608054003600 1 11361813515DEFATLower Eocene (Ypresian) Discoaster multiradiatus                                                    DEFIN4
P608054003600 1 11361913516DEFATLower Eocene (Ypresian) Tribrachiatus bramlettei                                                    DEFIN4
P608054003600 1 11362013517DEFATLower Eocene (Ypresian) Discoaster mahmoudi                                                         DEFIN4
P608054003600 1 11380013649DEFATLower Eocene (Ypresian) Fasciculithus tympaniformis                                                 DEFIN4
P608054003600 1 11396013759POSINLower Eocene (Ypresian) Apectodinium homomorphum acme/PETM                                          DEFIN4
P608054003600 1 11446014105POSATUpper Paleocene (Thanetian) Heliolithus kleinpellii                                                 DEFIN4
P608054003600 1 11515014578POSINLower Eocene (Ypresian) Cruciplacolithus frequens                                                   DEFIN4
P608054003600 1 11542014764POSINUpper Paleocene (Thanetian) Bathysiphon spp increase                                                DEFIN4
P608054003600 1 11587015074DEFATUpper Paleocene (Thanetian) Ericsonia robusta                                                       DEFIN4
P608054003600 1 11596015136DEFATUpper Paleocene (Thanetian) Fasciculithus billii                                                    DEFAT4
P608054003600 1 11602015177POSATUpper Paleocene (Thanetian) Prinsius martinii increase                                              DEFIN4
P608054002800 1 11164911647DEFINLower Oligocene (Rupelian) Reticulofenestra circus                                                  DEFAT 
P608054002800 1 11165011648POSINLower Oligocene (Rupelian) Ericsonia formosa                                                        DEFAT 
P608054002800 1 11190011897DEFINLower Oligocene                                                                                     DEFAT 
P608054002800 1 11322913204DEFINLower Oligocene (Rupelian) Reticulofenestra circus                                                  DEFAT 
P608054002800 1 11323013205POSINLower Oligocene (Rupelian) Ericsonia formosa                                                        DEFAT 
P608054002800 1 11690016783DEFINLower Oligocene                                                                                     DEFAT6
P608054002800 1 11692916811DEFINLower Oligocene (Rupelian) Discoaster nodifer                                                       DEFAT6
P608054002800 1 11693016812DEFINLower Oligocene (Rupelian) Sphenolithus pseudoradians                                               DEFAT6
P608054002800 1 11729017163DEFATLower Oligocene (Rupelian) Lanternithus minutus                                                     DEFAT6
P608054002800 1 11735017221POSINLower Oligocene (Rupelian) Turborotalia ampliapertura                                               DEFAT6
P608054002800 1 11774017601POSINLower Oligocene (Rupelian) Turborotalia increbescens                                                DEFAT6
P608054002800 1 11780017659DEFATLower Oligocene (Rupelian) Pseudohastigerina micra                                                  DEFAT6
P608054002800 1 11792017777DEFATLower Oligocene (Rupelian) Ericsonia subdisticha acme                                               DEFAT6
P608054002800 1 11809917951DEFATLower Oligocene (Rupelian) Reticulofenestra umbilica                                                DEFAT6
P608054002800 1 11810017952DEFATLower Oligocene (Rupelian) Reticulofenestra hillae                                                  DEFAT6
P608054002800 1 11813017981DEFATLower Oligocene (Rupelian) Helicosphaera reticulata                                                 DEFAT6
P608054002800 1 11831018157DEFATLower Oligocene (Rupelian) Ericsonia formosa                                                        DEFAT6
P608054002800 1 11846018303DEFATLower Oligocene (Rupelian) Ismolithus recurvus                                                      DEFAT6
P608054002800 1 11875918595DEFATUpper Eocene (Priabonian) Cribrocentrum reticulatum                                                 DEFIN6
P608054002800 1 11876018596DEFATUpper Eocene (Priabonian) Globorotalia pomeroli                                                     DEFIN6
P608054002800 1 11887918712DEFATMiddle Eocene (Bartonian) Sphenolithus radians                                                      DEFIN6
P608054002800 1 11911818945DEFATUpper Eocene (Priabonian) Pemma basquensis                                                          DEFIN6
P608054002800 1 11911918946DEFATUpper Eocene (Priabonian) Globigerinatheka semiinvoluta                                             DEFIN6
P608054002800 1 11912018947DEFATUpper Eocene (Priabonian) Globigerinatheka barri                                                    DEFIN6
P608054002800 1 11926919093DEFATUpper Eocene (Priabonian) Micrantholithus procerus                                                  DEFIN6
P608054002800 1 11930019123POSATMiddle Eocene (Bartonian) Truncorotaloides rohri                                                    DEFIN6
P608054002800 1 11942019240DEFATMiddle Eocene (Bartonian) Campylosphaera dela                                                       DEFIN6
P608054002800 1 11954019357POSATMiddle Eocene (Bartonian) Chiasmolithus grandis                                                     DEFIN6
P608054002800 1 11960519420DEFATMiddle Eocene (Bartonian) Chiasmolithus grandis                                                     DEFIN6
P608054002800 1 11960919424POSATMiddle Eocene (Bartonian) Sphenolithus spiniger                                                     DEFIN6
P608054002801 1 11693116818DEFINLower Oligocene (Rupelian) Reticulofenestra circus                                                  DEFAT 
P608054002801 1 11729017169DEFATLower Oligocene (Rupelian) Lanternithus minutus                                                     DEFAT 
P608054002801 1 11792017784DEFATLower Oligocene (Rupelian) Ericsonia subdisticha acme                                               DEFAT 
P608054002801 1 11804017901DEFATLower Oligocene (Rupelian) Reticulofenestra hillae                                                  DEFAT 
P608054002801 1 11806917929DEFATLower Oligocene (Rupelian) Reticulofenestra umbilica                                                DEFAT 
P608054002801 1 11807017930DEFATLower Oligocene (Rupelian) Helicosphaera reticulata                                                 DEFAT 
P608054002801 1 11831018164DEFATLower Oligocene (Rupelian) Ericsonia formosa                                                        DEFAT 
P608054002801 1 11846018310DEFATLower Oligocene (Rupelian) Ismolithus recurvus                                                      DEFAT 
P608054002801 1 11862918475DEFATUpper Eocene (Priabonian) Chiasmolithus consuetus                                                   DEFIN6
P608054002801 1 11873018572DEFATUpper Eocene (Priabonian) Globorotalia pomeroli                                                     DEFIN6
P608054002801 1 11876018601DEFINUpper Eocene (Priabonian) Cribrocentrum reticulatum                                                 DEFIN6
P608054002801 1 11899918832POSATUpper Eocene (Priabonian) Pemma papillatum                                                          DEFIN6
P608054002801 1 11900018833POSATMiddle Eocene (Bartonian) Sphenolithus radians                                                      DEFIN6
P608054002801 1 11912018949DEFATUpper Eocene (Priabonian) Pemma basquensis                                                          DEFIN6
P608054002801 1 11942019237DEFATMiddle Eocene (Bartonian) Campylosphaera dela                                                       DEFIN6
P608054002801 1 11954819360DEFATMiddle Eocene (Bartonian) Chiasmolithus grandis                                                     DEFIN6
P608054002801 1 11977719582DEFATMiddle Eocene (Bartonian) Chiasmolithus solitus                                                     DEFIN6
P608054002801 1 11977819583DEFATMiddle Eocene (Bartonian) Sphenolithus spiniger                                                     DEFIN6
P608054002801 1 11977919584DEFATMiddle Eocene (Bartonian) Sphenolithus spiniger                                                     DEFIN6
P608054002801 1 11978019584DEFATMiddle Eocene (Lutetian) Discoaster wemmelensis                                                     DEFIN6
P608054002801 1 11978119585DEFATMiddle Eocene (Bartonian) Acarinina bullbrooki                                                      DEFIN6
P608054002801 1 11981019613DEFATMiddle Eocene (Bartonian) Birkelundia staurion                                                      DEFIN6
P608054002801 1 11981119614POSATMiddle Eocene (Bartonian) Truncorotaloides topilensis                                               DEFIN6
P608054002801 1 11984119643DEFATMiddle Eocene (Lutetian) Igorina broedermanni                                                       DEFIN6
P608054002801 1 11990119701DEFATMiddle Eocene (Bartonian) Sphenolithus furcatolithioides increase                                   DEFIN6
P608054002801 1 11993119730DEFATMiddle Eocene (Lutetian) Nannotetrina fulgens                                                       DEFIN6
P608054002801 1 11997619774DEFATMiddle Eocene (Lutetian) Blackites gladius                                                          DEFIN6
P608054002801 1 11997719775DEFATMiddle Eocene (Lutetian) Chiasmolithus gigas                                                        DEFIN6
P608054002801 1 11997819776POSATMiddle Eocene (Lutetian) Globigerinoides higginsi                                                   DEFIN6
P608054002801 1 11999119788POSATLower Eocene (Ypresian) Radiolarian acme B                                                          DEFIN6
P608054002801 1 12001719813DEFATLower Eocene (Ypresian) Radiolarian acme B                                                          DEFIN6
P608054002801 1 12001819814DEFATMiddle Eocene (Lutetian) Discoaster sublodoensis                                                    DEFIN6
P608054002801 1 12001919815DEFATMiddle Eocene (Lutetian) Discoaster lodoensis                                                       DEFIN6
P608054002801 1 12002019816POSATLower Eocene (Ypresian) Acarinina soldadoensis                                                      DEFIN6
P608054002801 1 12002119817POSATLower Eocene (Ypresian) Morozovella rex / subbotinae                                                DEFIN6
P608054002801 1 12005019845DEFINLower Eocene (Ypresian) Radiolarian acme B                                                          DEFIN6
P608054002801 1 12005119846DEFATLower Eocene (Ypresian) Discoaster kuepperi                                                         DEFIN6
P608054002801 1 12017119962POSATLower Eocene (Ypresian) Morozovella quetra                                                          DEFIN6
P608054002801 1 12020019990POSATLower Eocene (Ypresian) Morozovella formosa formosa                                                 DEFIN6
P608054002801 1 12020119991POSATLower Eocene (Ypresian) Acarinina wilcoxensis                                                       DEFIN6
P608054002801 1 12023020019DEFATLower Eocene (Ypresian) Tribrachiatus orthostylus                                                   DEFIN6
P608054002801 1 12038720171DEFATLower Eocene (Ypresian) Discoaster multiradiatus                                                    DEFIN6
P608054002801 1 12038820172DEFATLower Eocene (Ypresian) Tribrachiatus bramlettei                                                    DEFIN6
P608054002801 1 12038920173DEFATLower Eocene (Ypresian) Tribrachiatus bramlettei                                                    DEFIN6
P608054002801 1 12039020174POSATLower Eocene (Ypresian) Morozovella aequa                                                           DEFIN6
P608054002801 1 12050020280DEFATLower Eocene (Ypresian) Toweius eminens                                                             DEFIN6
P608054002801 1 12062020396DEFATLower Eocene (Ypresian) Prinsius bisulcus                                                           DEFIN6
P608054002801 1 12065020425POSATLower Eocene (Ypresian) Morozovella edgari                                                          DEFIN6
P608054002801 1 12069820471DEFATLower Eocene (Ypresian) Radiolarian acme C                                                          DEFIN6
P608054002801 1 12073920511DEFINLower Eocene (Ypresian) Chiasmolithus bidens                                                        DEFIN6
P608054002801 1 12125021005POSATLower Eocene (Ypresian) Fasciculithus involutus                                                     DEFIN6
P608054002801 1 12127921033POSATLower Eocene (Ypresian) Prinsius martinii                                                           DEFIN6
P608054002801 1 12212021853DEFATUpper Paleocene (Thanetian) Ericsonia robusta                                                       DEFIN6
P608054002801 1 12302022735DEFATUpper Paleocene (Thanetian) Bathysiphon spp increase                                                DEFIN6
P608054002801 1 12326022972POSATUpper Paleocene (Thanetian) Heliolithus kleinpellii                                                 DEFIN6
P608054002801 1 12371023417POSATUpper Paleocene (Thanetian) Morozovella angulata                                                    DEFIN6
P608054007200 1 2 894008940DEFATUpper Oligocene (Chattian) Dictyococcites bisectus                                                  DEFAT 
P608054007200 1 2 899808998DEFATUpper Oligocene (Chattian) Sphenolithus ciperoensis                                                 DEFAT 
P608054007200 1 2 899908999DEFATUpper Oligocene (Chattian) Globigerina ciperoensis ciperoensis                                      DEFAT 
P608054007200 1 2 900009000POSATLower Eocene (Ypresian) Ellipsolithus distichus                                                     DEFAT 
P608054007200 1 2 906009060DEFATLower Eocene (Ypresian) Tribrachiatus contortus                                                     DEFAT 
P608054007200 1 2 915009150DEFATLower Eocene (Ypresian) Discoaster multiradiatus                                                    DEFAT 
P608054007200 1 2 954009540DEFATLower Eocene (Ypresian) Fasciculithus tympaniformis                                                 DEFAT 
P608054007200 1 21060010583DEFINUpper Paleocene Thanetian Stage                                                                     DEFAT 
P608054007200 1 21090010857DEFATUpper Paleocene (Thanetian) Heliolithus kleinpellii                                                 DEFAT 
P608054007200 1 21241012045DEFINUpper Paleocene (Selandian) Chiasmolithus danicus                                                   DEFAT 
P608054007200 2 2 985009850POSATMiddle Eocene (Bartonian) Turborotalia frontosa                                                     DEFAT 
P608054007200 2 21008910088DEFATLower Eocene (Ypresian) Acarinina soldadoensis                                                      DEFAT 
P608054007200 2 21009010089DEFATLower Eocene (Ypresian) Morozovella rex / subbotinae                                                DEFAT 
P608054007200 2 21250012106POSATLower Paleocene (Danian) Parasubbotina pseudobulloides                                              DEFAT 
P608054002200 1 21099010937POSATUpper Oligocene (Chattian) Globigerina ciperoensis ciperoensis                                      DEFIN4
P608054002200 1 21123011172DEFINUpper Oligocene (Chattian) Paragloborotalia opima opima                                             DEFIN4
P608054002200 1 21195011880POSATLower Oligocene (Rupelian) Turborotalia ampliapertura                                               DEFIN4
P608054002200 1 21258012498POSATLower Oligocene (Rupelian) Chiloguembelina cubensis                                                 DEFIN4
P608054002200 1 21339013293DEFATLower Oligocene (Rupelian) Turborotalia ampliapertura                                               DEFIN4
P608054002200 1 21348013382DEFATLower Oligocene (Rupelian) Turborotalia increbescens                                                DEFIN4
P608054002200 1 21375013647DEFATUpper Eocene (Priabonian) Globorotalia pomeroli                                                     DEFIN4
P608054002200 1 21387013764DEFATUpper Eocene (Priabonian) Globigerinatheka semiinvoluta                                             DEFIN4
P608054002200 1 21410613996DEFATMiddle Eocene (Bartonian) Truncorotaloides topilensis                                               DEFIN4
P608054002200 1 21410713997DEFATMiddle Eocene (Bartonian) Morozovella lehneri                                                       DEFIN4
P608054002200 1 21410813998DEFATMiddle Eocene (Bartonian) Turborotalia frontosa                                                     DEFIN4
P608054002200 1 21410913999DEFATMiddle Eocene (Lutetian) Igorina broedermanni                                                       DEFIN4
P608054002200 1 21411014000DEFATMiddle Eocene (Lutetian) Globigerinoides higginsi                                                   DEFIN4
P608054002200 1 21420014088DEFATMiddle Eocene (Lutetian) Morozovella aragonensis                                                    DEFIN4
P608054002200 1 21446714350DEFATLower Eocene (Ypresian) Morozovella quetra                                                          DEFIN4
P608054002200 1 21446814351DEFATLower Eocene (Ypresian) Acarinina angulosa                                                          DEFIN4
P608054002200 1 21446914352DEFATLower Eocene (Ypresian) Radiolarian acme B                                                          DEFIN4
P608054002200 1 21447014353DEFATLower Eocene (Ypresian) Morozovella rex / subbotinae                                                DEFIN4
P608054002200 1 21462014499DEFATLower Eocene (Ypresian) Morozovella formosa formosa                                                 DEFAT 
P608054002200 3 21102010966DEFATUpper Oligocene (Chattian) Clausicoccus fenestratus                                                 DEFAT 
P608054002200 3 21108011025DEFATUpper Oligocene (Chattian) Sphenolithus ciperoensis                                                 DEFAT 
P608054002200 3 21123011172DEFATUpper Oligocene (Chattian) Sphenolithus distentus                                                   DEFAT 
P608054002200 3 21135011290DEFATUpper Oligocene (Chattian) Sphenolithus predistentus                                                DEFAT 
P608054002200 3 21138011319DEFATLower Oligocene (Rupelian) Sphenolithus pseudoradians                                               DEFAT 
P608054002200 3 21165011584POSATLower Oligocene (Rupelian) Ericsonia formosa                                                        DEFAT 
P608054002200 3 21368913587POSATLower Oligocene (Rupelian) Ismolithus recurvus                                                      DEFAT 
P608054002200 3 21369013588POSATLower Oligocene (Rupelian) Helicosphaera reticulata                                                 DEFAT 
P608054002200 3 21384013735DEFATUpper Eocene (Priabonian) Cribrocentrum reticulatum                                                 DEFAT 
P608054002200 3 21390013794POSATMiddle Eocene (Bartonian) Sphenolithus radians                                                      DEFAT 
P608054002200 3 21413714026DEFATMiddle Eocene (Bartonian) Chiasmolithus grandis                                                     DEFAT 
P608054002200 3 21413814027DEFATMiddle Eocene (Bartonian) Campylosphaera dela                                                       DEFAT 
P608054002200 3 21413914028DEFATMiddle Eocene (Bartonian) Sphenolithus spiniger                                                     DEFAT 
P608054002200 3 21414014029DEFATMiddle Eocene (Bartonian) Sphenolithus furcatolithoides                                             DEFAT 
P608054002200 3 21416914058DEFATMiddle Eocene (Bartonian) Sphenolithus furcatolithioides increase                                   DEFAT 
P608054002200 3 21417014059DEFATMiddle Eocene (Lutetian) Blackites gladius                                                          DEFAT 
P608054002200 3 21420014088DEFATMiddle Eocene (Lutetian) Discoaster wemmelensis                                                     DEFAT 
P608054002200 3 21423014118POSATLower Eocene (Ypresian) Rhabdosphaera inflata                                                       DEFAT 
P608054002200 3 21447014353DEFATLower Eocene (Ypresian) Discoaster kuepperi                                                         DEFAT 
P608054002200 3 21459014470POSATLower Eocene (Ypresian) Tribrachiatus orthostylus                                                   DEFAT 
P608054002200 3 21462014499POSATLower Eocene (Ypresian) Tribrachiatus contortus                                                     DEFAT 
P608054002200 3 21473814614POSATLower Eocene (Ypresian) Toweius pertusus                                                            DEFAT 
P608054002200 3 21473914615DEFATLower Eocene (Ypresian) Tribrachiatus bramlettei                                                    DEFAT 
P608054002200 3 21474014615POSATLower Eocene (Ypresian) Chiasmolithus bidens                                                        DEFAT 
P608054002200 3 21477014644POSATLower Eocene (Ypresian) Prinsius bisulcus                                                           DEFAT 
P608054003000 1 21250012500DEFATUpper Oligocene (Chattian) Globigerina ciperoensis ciperoensis                                      DEFAT5
P608054003000 1 21256012560DEFATUpper Oligocene (Chattian) Globigerina sellii                                                       DEFAT5
P608054003000 1 21262012620DEFATUpper Oligocene (Chattian) Paragloborotalia opima nana                                              DEFAT5
P608054003000 1 21268512685DEFINUpper Oligocene (Chattian) Globigerina angulisuturalis                                              DEFAT5
P608054003000 1 21271012710DEFATUpper Oligocene (Chattian) Paragloborotalia opima opima                                             DEFAT5
P608054003000 1 21292012920DEFATLower Oligocene (Rupelian) Globigerina gortani                                                      DEFAT5
P608054003000 1 21355013550DEFATLower Oligocene (Rupelian) Chiloguembelina cubensis                                                 DEFAT5
P608054003000 1 21418014180DEFATLower Oligocene (Rupelian) Turborotalia ampliapertura                                               DEFAT5
P608054003000 1 21475014750POSINLower Oligocene (Rupelian) Turborotalia ampliapertura                                               DEFAT5
P608054003000 2 21250012500DEFATUpper Oligocene (Chattian) Dictyococcites bisectus                                                  DEFAT 
P608054003000 2 21253012530DEFATUpper Oligocene (Chattian) Sphenolithus ciperoensis                                                 DEFAT 
P608054003000 2 21259012590DEFATUpper Oligocene (Chattian) Triquetrorhabdulus carinatus acme                                        DEFAT 
P608054003000 2 21271012710DEFATLower Oligocene (Rupelian) Helicosphaera compacta                                                   DEFAT 
P608054003000 2 21274012740DEFINUpper Oligocene (Chattian) Sphenolithus predistentus                                                DEFAT 
P608054003000 2 21276812768DEFATLower Oligocene (Rupelian) Discoaster nodifer                                                       DEFAT 
P608054003000 2 21340013400DEFATLower Oligocene (Rupelian) Sphenolithus pseudoradians                                               DEFAT 
P608054003000 2 21364013640DEFINLower Oligocene (Rupelian) Lanternithus minutus                                                     DEFAT 
P608054003000 2 21391013910DEFATLower Oligocene (Rupelian) Markalius inversus                                                       DEFAT 
P608054003000 2 21394013940POSATLower Oligocene (Rupelian) Ericsonia formosa increase                                               DEFAT 
P608054003000 2 21466014660DEFATLower Oligocene (Rupelian) Ericsonia formosa increase                                               DEFAT 
P608054002500 1 31062010620DEFATUpper Oligocene (Chattian) Paragloborotalia opima opima                                             DEFAT5
P608054002500 1 31068010680DEFINUpper Oligocene (Chattian) Paragloborotalia opima opima                                             DEFAT5
P608054002500 1 31080010800DEFATLower Oligocene (Rupelian) Turborotalia ampliapertura                                               DEFAT5
P608054002500 1 31089010890DEFATLower Oligocene (Rupelian) Globigerina tapuriensis                                                  DEFAT4
P608054002500 1 31092010920DEFATLower Oligocene (Rupelian) Turborotalia increbescens                                                DEFAT4
P608054002500 1 31113011130POSATUpper Eocene (Priabonian) Subbotina linaperta                                                       DEFAT4
P608054002500 1 31119011190POSINUpper Eocene (Priabonian) Subbotina linaperta                                                       DEFAT4
P608054002500 1 31128011280POSATMiddle Eocene (Bartonian) Acarinina bullbrooki                                                      DEFAT4
P608054002500 1 31161011609POSATMiddle Eocene (Bartonian) Operculinoides sabinensis                                                 DEFAT4
P608054002500 1 31179011787DEFATUpper Eocene (Priabonian) Turborotalia cerroazulensis cocoaensis                                    DEFAT4
P608054002500 1 31191011906DEFATUpper Eocene (Priabonian) Globigerinatheka barri                                                    DEFAT4
P608054002500 1 31194011936DEFINUpper Eocene (Priabonian) Hantkenina alabamensis                                                    DEFAT4
P608054002500 1 31197011966DEFATUpper Eocene (Priabonian) Globorotalia pomeroli                                                     DEFAT4
P608054002500 1 31206012055POSATMiddle Eocene (Bartonian) Truncorotaloides topilensis                                               DEFAT5
P608054002500 1 31209012085DEFATUpper Eocene (Priabonian) Globigerinatheka semiinvoluta                                             DEFAT5
P608054002500 1 31223612230DEFATUpper Eocene (Priabonian) Globigerinatheka barri                                                    DEFAT5
P608054002500 1 31223712231DEFATMiddle Eocene (Bartonian) Truncorotaloides rohri                                                    DEFAT5
P608054002500 1 31223812232DEFATMiddle Eocene (Bartonian) Truncorotaloides topilensis                                               DEFAT5
P608054002500 1 31223912233DEFATMiddle Eocene (Bartonian) Acarinina bullbrooki                                                      DEFAT5
P608054002500 1 31224012234DEFATMiddle Eocene (Bartonian) Radiolarian acme A                                                        DEFAT5
P608054002500 1 31263012623POSATLower Eocene (Ypresian) Acarinina soldadoensis                                                      DEFIN6
P608054002500 1 31285812849DEFATLower Eocene (Ypresian) Acarinina wilcoxensis                                                       DEFAT4
P608054002500 1 31285912850DEFATLower Eocene (Ypresian) Morozovella aequa                                                           DEFAT4
P608054002500 1 31286012851DEFATLower Eocene (Ypresian) Subbotina velascoensis                                                      DEFAT4
P608054002500 1 31289012881DEFATLower Eocene (Ypresian) Morozovella velascoenesis                                                   DEFAT4
P608054002500 1 31376813754DEFATUpper Paleocene (Thanetian) Planulorotalites pseudomenardii                                         DEFAT4
P608054002500 1 31376913755DEFATUpper Paleocene (Thanetian) Subbotina triloculinoides                                               DEFAT4
P608054002500 1 31377013756DEFATUpper Paleocene (Selandian) Igorina pusilla pusilla                                                 DEFAT4
P608054002500 1 31380013786DEFATUpper Paleocene (Selandian) Morozovella conicotruncana                                              DEFAT4
P608054002500 2 31053810538DEFATLower Oligocene (Rupelian) Ericsonia formosa                                                        DEFAT 
P608054002500 2 31056010560DEFINLower Oligocene Rupelian Stage                                                                      DEFAT 
P608054002500 2 31110011100DEFATLower Oligocene (Rupelian) Ismolithus recurvus                                                      DEFAT 
P608054002500 2 31119011190DEFATLower Oligocene (Rupelian) Ericsonia formosa increase                                               DEFAT 
P608054002500 2 31158011579POSATUpper Eocene (Priabonian) Discoaster barbadiensis                                                   DEFAT 
P608054002500 2 31179011787DEFATUpper Eocene (Priabonian) Discoaster barbadiensis                                                   DEFAT 
P608054002500 2 31185011846DEFINUpper Eocene (Priabonian) Discoaster barbadiensis                                                   DEFAT 
P608054002500 2 31221012205DEFATUpper Eocene (Priabonian) Sphenolithus obtusus                                                      DEFAT 
P608054002500 2 31224012234DEFATMiddle Eocene (Bartonian) Chiasmolithus solitus                                                     DEFAT 
P608054002500 2 31236012354DEFATLower Eocene (Ypresian) Rhabdosphaera inflata                                                       DEFAT 
P608054002500 2 31239012384DEFATLower Eocene (Ypresian) Chiasmolithus californicus                                                  DEFAT 
P608054002500 2 31263012623DEFATLower Eocene (Ypresian) Tribrachiatus orthostylus                                                   DEFAT 
P608054002500 2 31272012712POSATLower Eocene (Ypresian) Discoaster multiradiatus                                                    DEFAT 
P608054002500 2 31280012792DEFATLower Eocene (Ypresian) Discoaster multiradiatus                                                    DEFAT 
P608054002500 2 31285912850DEFATLower Eocene (Ypresian) Toweius eminens                                                             DEFAT 
P608054002500 2 31286012851DEFATLower Eocene (Ypresian) Ellipsolithus distichus                                                     DEFAT 
P608054002500 2 31377013756POSATUpper Paleocene (Selandian) Cruciplacolithus tenuis increase                                        DEFAT 
P608054002500 3 31269112683DEFINLower (Early) Eocene                                                                                DEFAT 
P608054002500 3 31269212684POSINLower Eocene (Ypresian) Intratriporopollenites 1 (pollen)                                           DEFAT 
P608054002500 3 31293012921POSATLower Eocene (Ypresian) Apectodinium homomorphum acme/PETM                                          DEFAT 
P608054003200 1 11008110081DEFINUpper Oligocene (Chattian) Paragloborotalia opima opima                                             DEFAT5
P608054003200 1 11010010100DEFATUpper Oligocene (Chattian) Sphenolithus ciperoensis                                                 DEFAT5
P608054003200 1 11023010230DEFATUpper Oligocene (Chattian) Sphenolithus distentus                                                   DEFAT5
P608054003200 1 11044010440DEFATLower Oligocene (Rupelian) Helicosphaera compacta                                                   DEFAT5
P608054003200 1 11098010980DEFATLower Oligocene (Rupelian) Turborotalia ampliapertura                                               DEFAT5
P608054003200 1 11191011910DEFATLower Oligocene (Rupelian) Lanternithus minutus                                                     DEFAT5
P608054003200 1 11194011940POSATLower Oligocene (Rupelian) Turborotalia increbescens                                                DEFAT5
P608054003200 1 11209012090DEFATLower Oligocene (Rupelian) Turborotalia increbescens                                                DEFAT5
P608054003200 1 11224012240DEFATLower Oligocene (Rupelian) Reticulofenestra hillae                                                  DEFAT5
P608054003200 1 11248012480DEFATLower Oligocene (Rupelian) Ericsonia formosa                                                        DEFAT5
P608054003200 1 11278012780DEFATUpper Eocene (Priabonian) Turborotalia cerroazulensis cocoaensis                                    DEFAT5
P608054003200 1 11281012810DEFATUpper Eocene (Priabonian) Cribrocentrum reticulatum                                                 DEFAT5
P608054003200 1 11290012900DEFATUpper Eocene (Priabonian) Globorotalia pomeroli                                                     DEFAT5
P608054003200 1 11322913229DEFATMiddle Eocene (Lutetian) Igorina broedermanni                                                       DEFAT5
P608054003200 1 11323013230DEFATMiddle Eocene (Lutetian) Morozovella aragonensis                                                    DEFAT5
P608054003200 1 11341013410DEFATMiddle Eocene (Lutetian) Blackites gladius                                                          DEFAT5
P608054003200 1 11343913439DEFATLower Eocene (Ypresian) Rhabdosphaera inflata                                                       DEFAT5
P608054003200 1 11344013440DEFATLower Eocene (Ypresian) Morozovella rex / subbotinae                                                DEFAT5
P608054003200 1 11362013620DEFATLower Eocene (Ypresian) Morozovella formosa formosa                                                 DEFAT5
P608054003200 1 11368013680DEFATLower Eocene (Ypresian) Radiolarian acme B                                                          DEFAT5
P608054003200 1 11374013740DEFINLower Eocene (Ypresian) Radiolarian acme B                                                          DEFAT5
P608054003200 1 11380013800DEFATLower Eocene (Ypresian) Acarinina wilcoxensis                                                       DEFAT5
P608054003200 1 11392013920DEFATLower Eocene (Ypresian) Morozovella aequa                                                           DEFAT5
P608054003200 1 11410014100DEFATLower Eocene (Ypresian) Discoaster multiradiatus                                                    DEFAT5
P608054003200 1 11422014220DEFATLower Eocene (Ypresian) Tribrachiatus bramlettei                                                    POSAT5
P608054003300 1 11095010950DEFATUpper Oligocene (Chattian) Paragloborotalia opima opima                                             POSAT5
P608054003300 1 11098010980DEFATUpper Oligocene (Chattian) Sphenolithus distentus                                                   POSAT5
P608054003300 1 11116011160DEFATLower Oligocene (Rupelian) Helicosphaera compacta                                                   POSAT5
P608054003300 1 11197011970DEFATLower Oligocene (Rupelian) Turborotalia ampliapertura                                               POSAT5
P608054003300 1 11284012840POSATLower Oligocene (Rupelian) Turborotalia increbescens                                                POSAT4
P608054003300 1 11290012900DEFINLower Oligocene (Rupelian) Lanternithus minutus                                                     POSAT4
P608054003300 1 11308013080DEFATLower Oligocene (Rupelian) Turborotalia increbescens                                                POSAT4
P608054003300 1 11323013230DEFATLower Oligocene (Rupelian) Reticulofenestra hillae                                                  POSAT4
P608054003300 1 11350013499DEFATLower Oligocene (Rupelian) Ericsonia formosa                                                        POSAT4
P608054003300 1 11371013709DEFATUpper Eocene (Priabonian) Globorotalia pomeroli                                                     POSAT5
P608054003300 1 11404014039DEFATUpper Eocene (Priabonian) Cribrocentrum reticulatum                                                 POSAT4
P608054003300 1 11413014129DEFATUpper Eocene (Priabonian) Globigerinatheka semiinvoluta                                             POSAT4
P608054003300 1 11437014369DEFATMiddle Eocene (Lutetian) Igorina broedermanni                                                       POSAT5
P608054003300 1 11440014399DEFATMiddle Eocene (Bartonian) Chiasmolithus grandis                                                     POSAT5
P608054003300 1 11443014429DEFATMiddle Eocene (Lutetian) Morozovella aragonensis                                                    POSAT5
P608054003300 1 11445914458DEFATMiddle Eocene (Lutetian) Blackites gladius                                                          DEFAT5
P608054003300 1 11446014459DEFATLower Eocene (Ypresian) Morozovella rex / subbotinae                                                POSAT5
P608054003300 1 11460914608DEFATLower Eocene (Ypresian) Radiolarian acme B                                                          POSAT5
P608054003300 1 11461014609DEFATLower Eocene (Ypresian) Morozovella formosa formosa                                                 POSAT5
P608054003300 1 11467014669DEFINLower Eocene (Ypresian) Radiolarian acme B                                                          POSAT5
P608054003300 1 11473014729POSINLower Eocene (Ypresian) Acarinina wilcoxensis                                                       POSAT5
P608054003300 1 11494014939DEFATLower Eocene (Ypresian) Morozovella aequa                                                           POSAT5
P608054003300 1 11521015209DEFINLower Eocene (Ypresian) Discoaster multiradiatus                                                    POSAT5
P608054001800 1 21193911939DEFATLower Oligocene (Rupelian) Sphenolithus akropodus                                                   DEFAT 
P608054001800 1 21194011940DEFATLower Oligocene (Rupelian) Helicosphaera reticulata                                                 DEFAT 
P608054001800 1 21233012330DEFATLower Oligocene (Rupelian) Ericsonia formosa                                                        DEFAT 
P608054001800 1 21244912449DEFATLower Oligocene (Rupelian) Reticulofenestra hillae                                                  DEFAT 
P608054001800 1 21245012450DEFATLower Oligocene (Rupelian) Reticulofenestra umbilica                                                DEFAT 
P608054001800 1 21277912778DEFATUpper Eocene (Priabonian) Discoaster saipanensis                                                    DEFAT 
P608054001800 1 21278012779DEFATUpper Eocene (Priabonian) Discoaster barbadiensis                                                   DEFAT 
P608054001800 1 21310713106DEFATMiddle Eocene (Bartonian) Sphenolithus spiniger                                                     DEFAT 
P608054001800 1 21310813107DEFATMiddle Eocene (Bartonian) Sphenolithus furcatolithoides                                             DEFAT 
P608054001800 1 21310913108DEFATMiddle Eocene (Bartonian) Sphenolithus radians                                                      DEFAT 
P608054001800 1 21311013109DEFATMiddle Eocene (Lutetian) Blackites gladius                                                          DEFAT 
P608054001800 1 21363813636DEFATMiddle Eocene (Lutetian) Discoaster lodoensis                                                       DEFAT 
P608054001800 1 21363913637DEFATLower Eocene (Ypresian) Discoaster kuepperi                                                         DEFAT 
P608054001800 1 21364013638DEFATLower Eocene (Ypresian) Tribrachiatus orthostylus                                                   DEFAT 
P608054001800 1 21365813656DEFATMiddle Eocene (Lutetian) Discoaster lodoensis                                                       DEFAT 
P608054001800 1 21373013728DEFATLower (Early) Eocene                                                                                DEFAT 
P608054001800 1 21374413742DEFATLower Eocene (Ypresian) Tribrachiatus contortus                                                     DEFAT 
P608054001800 1 21393013927DEFATLower Eocene (Ypresian) Tribrachiatus bramlettei                                                    DEFAT 
P608054001800 1 21439014387POSINLower Eocene (Ypresian) Discoaster multiradiatus                                                    DEFAT 
P608054001800 2 21013910139POSATUpper Oligocene (Chattian) Paragloborotalia opima opima                                             DEFIN5
P608054001800 2 21014010140POSATLower Oligocene (Rupelian) Globigerina gortani                                                      DEFIN5
P608054001800 2 21083010830DEFATLower Oligocene (Rupelian) Chiloguembelina cubensis                                                 DEFIN5
P608054001800 2 21181911819DEFATLower Oligocene (Rupelian) Turborotalia ampliapertura                                               DEFIN5
P608054001800 2 21182011820DEFATLower Oligocene (Rupelian) Turborotalia increbescens                                                DEFIN5
P608054001800 2 21251012510POSATUpper Eocene (Priabonian) Subbotina linaperta                                                       DEFIN5
P608054001800 2 21263012630POSATUpper Eocene (Priabonian) Turborotalia cerroazulensis cocoaensis                                    DEFIN5
P608054001800 2 21278012779DEFATUpper Eocene (Priabonian) Turborotalia cerroazulensis cocoaensis                                    DEFIN5
P608054001800 2 21289812897DEFATUpper Eocene (Priabonian) Subbotina linaperta                                                       DEFIN5
P608054001800 2 21289912898DEFATUpper Eocene (Priabonian) Globorotalia pomeroli                                                     DEFIN5
P608054001800 2 21290012899DEFATUpper Eocene (Priabonian) Globigerinatheka semiinvoluta                                             DEFIN5
P608054001800 2 21310513104DEFATMiddle Eocene (Bartonian) Truncorotaloides rohri                                                    DEFIN5
P608054001800 2 21310613105DEFATMiddle Eocene (Bartonian) Truncorotaloides topilensis                                               DEFIN5
P608054001800 2 21310713106DEFATMiddle Eocene (Bartonian) Morozovella lehneri                                                       DEFIN5
P608054001800 2 21310813107DEFATMiddle Eocene (Bartonian) Acarinina bullbrooki                                                      DEFIN5
P608054001800 2 21310913108DEFATMiddle Eocene (Bartonian) Acarinina pentacamerata                                                   DEFIN5
P608054001800 2 21311013109DEFATMiddle Eocene (Lutetian) Globigerinoides higginsi                                                   DEFIN5
P608054001800 2 21357913577POSATMiddle Eocene (Lutetian) Morozovella aragonensis                                                    DEFAT 
P608054001800 2 21358013578POSATLower Eocene (Ypresian) Acarinina soldadoensis                                                      DEFAT 
P608054001800 2 21361013608DEFATLower Eocene (Ypresian) Radiolarian acme B                                                          DEFAT 
P608054001801 1 31436114358DEFINLower Eocene (Ypresian) Planorotalites chapmani                                                     DEFIN5
P608054001801 1 31436214358DEFINLower Eocene (Ypresian) Morozovella velascoenesis                                                   DEFIN5
P608054001801 1 31436314359DEFINUpper Paleocene (Thanetian) Morozovella angulata                                                    DEFIN5
P608054001801 1 31436414360DEFINUpper Paleocene (Thanetian) Subbotina triloculinoides                                               DEFIN5
P608054001801 1 31781017638POSATUpper Paleocene (Selandian) Igorina pusilla pusilla                                                 POSIN5
P608054001801 1 31784017666DEFATUpper Paleocene (Selandian) Morozovella conicotruncana                                              POSIN5
P608054001801 2 31439114387DEFINLower Eocene (Ypresian) Discoaster multiradiatus                                                    DEFAT 
P608054001801 2 31439214388DEFINLower Eocene (Ypresian) Discoaster mahmoudi                                                         DEFAT 
P608054001801 2 31492814915DEFATLower Eocene (Ypresian) Tribrachiatus bramlettei                                                    DEFAT 
P608054001801 2 31492914916POSATLower Eocene (Ypresian) Prinsius martinii                                                           DEFAT 
P608054001801 2 31493014917POSATUpper Paleocene (Thanetian) Discoaster nobilis                                                      DEFAT 
P608054001801 2 31622016135DEFATLower Eocene (Ypresian) Prinsius bisulcus                                                           DEFAT 
P608054001801 2 31634016249DEFATLower Eocene (Ypresian) Cruciplacolithus frequens                                                   DEFAT 
P608054001801 2 31676016645POSATLower Eocene (Ypresian) Fasciculithus tympaniformis                                                 DEFAT 
P608054001801 2 31772017552POSATUpper Paleocene (Thanetian) Ericsonia robusta                                                       DEFAT 
P608054001801 2 31783817664DEFATUpper Paleocene (Thanetian) Heliolithus riedelli                                                    DEFAT 
P608054001801 2 31783917665DEFATUpper Paleocene (Thanetian) Fasciculithus billii                                                    DEFAT 
P608054001801 2 31784017666POSATUpper Paleocene (Thanetian) Heliolithus kleinpellii                                                 DEFAT 
P608054001801 3 31703516904DEFATLower Eocene (Ypresian) Discoaster multiradiatus                                                    DEFAT 
P608054001801 3 31765017485DEFATUpper Paleocene (Thanetian) Ericsonia robusta                                                       DEFAT 
P608054002000 1 21000110001DEFINUpper Oligocene (Chattian) Paragloborotalia opima nana                                              POSAT5
P608054002000 1 21000210002DEFINUpper Oligocene (Chattian) Paragloborotalia opima opima                                             DEFAT5
P608054002000 1 21044010440DEFINLower Oligocene (Rupelian) Chiloguembelina cubensis                                                 DEFIN5
P608054002000 1 21052010520DEFATLower Oligocene (Rupelian) Turborotalia ampliapertura                                               DEFIN5
P608054002000 2 21000110001POSINUpper Oligocene (Chattian) Sphenolithus predistentus                                                DEFAT 
P608054002000 2 21002910029DEFATUpper Oligocene (Chattian) Sphenolithus predistentus                                                DEFAT 
P608054002000 2 21003010030POSATLower Oligocene (Rupelian) Helicosphaera compacta                                                   DEFAT 
P608054002000 2 21009010090POSATLower Oligocene (Rupelian) Reticulofenestra hillae                                                  DEFAT 
P608054002000 2 21011910119POSATLower Oligocene (Rupelian) Ericsonia formosa                                                        DEFAT 
P608054002000 2 21012010120DEFATLower Oligocene (Rupelian) Ericsonia formosa                                                        DEFAT 
P608054002000 2 21021010210POSATUpper Eocene (Priabonian) Discoaster barbadiensis                                                   DEFAT 
P608054002000 2 21041010410DEFINUpper Eocene (Priabonian) Discoaster saipanensis                                                    DEFAT 
P608054002000 2 21045910459DEFATMiddle Eocene (Bartonian) Sphenolithus furcatolithoides                                             DEFAT 
P608054002000 2 21046010460DEFATMiddle Eocene (Lutetian) Nannotetrina fulgens                                                       DEFAT 
P608054002000 2 21052010520DEFATMiddle Eocene (Bartonian) Sphenolithus spiniger                                                     DEFAT 
P608054002000 2 21091010910DEFATMiddle Eocene (Lutetian) Blackites gladius                                                          DEFAT 
P608054002300 1 11012010081POSATUpper Oligocene (Chattian) Paragloborotalia opima opima                                             DEFAT5
P608054002300 1 11047010411POSATLower Oligocene (Rupelian) Chiloguembelina cubensis                                                 DEFAT4
P608054002300 1 11084010759DEFATLower Oligocene (Rupelian) Globigerina gortani                                                      DEFAT5
P608054002300 1 11105010955POSATLower Oligocene (Rupelian) Turborotalia ampliapertura                                               DEFAT5
P608054002300 1 11108010983POSATLower Oligocene (Rupelian) Pseudohastigerina micra                                                  DEFAT5
P608054002300 1 11291012498DEFATUpper Eocene (Priabonian) Turborotalia cerroazulensis cocoaensis                                    DEFAT5
P608054002300 1 11309012627DEFATUpper Eocene (Priabonian) Subbotina linaperta                                                       DEFAT5
P608054002300 1 11333012799DEFATUpper Eocene (Priabonian) Globigerinatheka semiinvoluta                                             DEFAT5
P608054002300 1 11336012820DEFATUpper Eocene (Priabonian) Globigerinatheka mexicana                                                 DEFAT5
P608054002300 1 11358912979DEFATMiddle Eocene (Bartonian) Truncorotaloides rohri                                                    DEFAT5
P608054002300 1 11359012979DEFATMiddle Eocene (Bartonian) Acarinina bullbrooki                                                      DEFAT5
P608054002300 1 11361912999POSATMiddle Eocene (Lutetian) Igorina broedermanni                                                       DEFAT5
P608054002300 1 11362013000POSATMiddle Eocene (Lutetian) Morozovella aragonensis                                                    DEFAT5
P608054002300 1 11385913156POSATMiddle Eocene (Lutetian) Morozovella caucasica                                                      DEFAT5
P608054002300 1 11386013157POSATLower Eocene (Ypresian) Morozovella rex / subbotinae                                                DEFAT5
P608054002300 1 11389013177POSATMiddle Eocene (Lutetian) Morozovella aragonensis                                                    DEFAT5
P608054002300 1 11394913216POSATLower Eocene (Ypresian) Acarinina angulosa                                                          DEFAT5
P608054002300 1 11395013217POSATLower Eocene (Ypresian) Radiolarian acme B                                                          DEFAT5
P608054002300 1 11397913237DEFATLower Eocene (Ypresian) Morozovella formosa formosa                                                 DEFAT5
P608054002300 1 11398013237DEFATLower Eocene (Ypresian) Morozovella lensiformis                                                     DEFAT5
P608054002300 1 11416013361DEFATLower Eocene (Ypresian) Radiolarian acme C                                                          DEFAT5
P608054002700 1 21511015108DEFATLower Oligocene (Rupelian) Turborotalia ampliapertura                                               DEFIN5
P608054002700 1 21595015946DEFATUpper Eocene (Priabonian) Turborotalia cerroazulensis cocoaensis                                    DEFIN5
P608054002700 1 21640016395DEFATUpper Eocene (Priabonian) Globigerinatheka semiinvoluta                                             DEFIN5
P608054002700 1 21663816632DEFATMiddle Eocene (Bartonian) Acarinina spinuloinflata                                                  DEFIN5
P608054002700 1 21663916633DEFATMiddle Eocene (Bartonian) Truncorotaloides topilensis                                               DEFIN5
P608054002700 1 21664016634DEFATMiddle Eocene (Bartonian) Acarinina bullbrooki                                                      DEFIN5
P608054002700 1 21667016664DEFATMiddle Eocene (Bartonian) Turborotalia frontosa                                                     DEFIN6
P608054002700 1 21673016724DEFATMiddle Eocene (Lutetian) Igorina broedermanni                                                       DEFIN6
P608054002700 1 21685016844DEFATMiddle Eocene (Lutetian) Morozovella aragonensis                                                    DEFIN6
P608054002700 1 21700016994POSINMiddle Eocene (Lutetian) Morozovella aragonensis                                                    DEFIN5
P608054002700 1 21718017174POSATLower Eocene (Ypresian) Acarinina soldadoensis                                                      POSIN5
P608054002700 1 21727017264POSATLower Eocene (Ypresian) Morozovella quetra                                                          DEFIN5
P608054002700 1 21757017564DEFATLower Eocene (Ypresian) Acarinina wilcoxensis                                                       POSIN5
P608054002700 1 21793017923DEFATLower Eocene (Ypresian) Morozovella acuta                                                           POSIN6
P608054002700 1 21808018073DEFATUpper Paleocene (Thanetian) Subbotina triloculinoides                                               DEFIN5
P608054002700 1 21835018341POSATLower Paleocene (Danian) Parasubbotina pseudobulloides                                              DEFIN5
P608054002700 1 21850018490POSATLower Paleocene (Danian) Globocontusa daubjergensis                                                 DEFIN5
P608054002700 2 21298012980DEFATUpper Oligocene (Chattian) Sphenolithus delphix                                                     DEFAT 
P608054002700 2 21313013130DEFATUpper Oligocene (Chattian) Triquetrorhabdulus carinatus acme                                        DEFAT 
P608054002700 2 21319013190DEFATUpper Oligocene (Chattian) Paragloborotalia opima opima                                             DEFAT 
P608054002700 2 21325013250DEFATUpper Oligocene (Chattian) Sphenolithus predistentus                                                DEFAT 
P608054002700 2 21331013310DEFATLower Oligocene (Rupelian) Helicosphaera compacta                                                   DEFAT 
P608054002700 2 21334013340DEFATLower Oligocene (Rupelian) Sphenolithus pseudoradians                                               DEFAT 
P608054002700 2 21511015108DEFATLower Oligocene (Rupelian) Turborotalia ampliapertura                                               DEFAT 
P608054002700 2 21568015677DEFATLower Oligocene (Rupelian) Ericsonia formosa                                                        DEFAT 
P608054002700 2 21592015916DEFATLower Oligocene (Rupelian) Ismolithus recurvus                                                      DEFAT 
P608054002700 2 21594915945DEFATUpper Eocene (Priabonian) Discoaster barbadiensis                                                   DEFAT 
P608054002700 2 21595015946DEFATUpper Eocene (Priabonian) Turborotalia cerroazulensis cocoaensis                                    DEFAT 
P608054002700 2 21640016395DEFATUpper Eocene (Priabonian) Globigerinatheka semiinvoluta                                             DEFAT 
P608054002700 2 21670016694DEFATMiddle Eocene (Bartonian) Chiasmolithus grandis                                                     DEFAT 
P608054002700 2 21676016754DEFATMiddle Eocene (Lutetian) Blackites gladius                                                          DEFAT 
P608054002700 2 21694016934DEFATMiddle Eocene (Lutetian) Morozovella aragonensis                                                    DEFAT 
P608054002700 2 21703017024DEFATMiddle Eocene (Lutetian) Discoaster lodoensis                                                       DEFAT 
P608054002700 2 21706017054DEFATLower Eocene (Ypresian) Discoaster kuepperi                                                         DEFAT 
P608054002700 2 21718017174DEFATLower Eocene (Ypresian) Acarinina soldadoensis                                                      DEFAT 
P608054002700 2 21719417188DEFATLower Eocene (Ypresian) Discoaster multiradiatus                                                    DEFAT 
P608054002700 2 21719517189DEFATLower Eocene (Ypresian) Tribrachiatus bramlettei                                                    DEFAT 
P608054002700 2 21734717341DEFATLower Eocene (Ypresian) Chiasmolithus bidens                                                        DEFAT 
P608054002700 2 21735017344DEFATLower Eocene (Ypresian) Fasciculithus involutus                                                     DEFAT 
P608054002700 2 21735117345DEFATLower Eocene (Ypresian) Discoaster mahmoudi                                                         DEFAT 
P608054002700 2 21735217346DEFATLower Eocene (Ypresian) Ellipsolithus distichus                                                     DEFAT 
P608054002700 2 21735317347POSATLower Eocene (Ypresian) Fasciculithus tympaniformis                                                 DEFAT 
P608054002701 1 11596015940DEFATLower Oligocene (Rupelian) Ismolithus recurvus                                                      DEFAT 
P608054002701 1 11650016396DEFATUpper Eocene (Priabonian) Pemma papillatum                                                          DEFAT 
P608054002701 1 11692016714DEFINMiddle Eocene (Bartonian) Chiasmolithus grandis                                                     DEFAT 
P608054002701 1 11710016850DEFATMiddle Eocene (Bartonian) Sphenolithus spiniger                                                     DEFAT 
P608054002701 1 11713016873DEFATMiddle Eocene (Bartonian) Sphenolithus furcatolithoides                                             DEFAT 
P608054002701 1 11716016896DEFINMiddle Eocene (Lutetian) Blackites gladius                                                          DEFAT 
P608054002701 1 11722016942DEFINMiddle Eocene (Lutetian) Discoaster wemmelensis                                                     DEFAT 
P608054002701 1 11748917148DEFATMiddle Eocene (Lutetian) Discoaster sublodoensis                                                    DEFAT 
P608054002701 1 11749017148DEFATMiddle Eocene (Lutetian) Discoaster lodoensis                                                       DEFAT 
P608054002701 1 11770017311DEFATLower Eocene (Ypresian) Discoaster kuepperi                                                         DEFAT 
P608054002701 1 11797017520POSATLower Eocene (Ypresian) Toweius crassus                                                             DEFAT 
P608054001500 1 21286012859DEFATUpper Oligocene (Chattian) Globigerina ciperoensis ciperoensis                                      DEFIN6
P608054001500 1 21298012979DEFATUpper Oligocene (Chattian) Paragloborotalia opima opima                                             DEFIN6
P608054001500 1 21343013429DEFATLower Oligocene (Rupelian) Turborotalia ampliapertura                                               DEFIN4
P608054001500 1 21364013639DEFATLower Oligocene (Rupelian) Pseudohastigerina micra                                                  DEFIN4
P608054001500 1 21415014149DEFATUpper Eocene (Priabonian) Bulimina jacksonensis                                                     DEFIN4
P608054001500 1 21418014179DEFATUpper Eocene (Priabonian) Subbotina linaperta                                                       DEFIN4
P608054001500 1 21427014269DEFATUpper Eocene (Priabonian) Globorotalia pomeroli                                                     DEFIN4
P608054001500 1 21436014359DEFATUpper Eocene (Priabonian) Globigerinatheka semiinvoluta                                             DEFIN6
P608054001500 1 21456814567DEFATMiddle Eocene (Bartonian) Acarinina spinuloinflata                                                  DEFIN6
P608054001500 1 21456914568DEFATMiddle Eocene (Bartonian) Truncorotaloides rohri                                                    DEFIN6
P608054001500 1 21457014569DEFATMiddle Eocene (Bartonian) Acarinina bullbrooki                                                      DEFIN6
P608054001500 1 21484014839DEFATMiddle Eocene (Bartonian) Morozovella lehneri                                                       DEFIN6
P608054001500 1 21490014899DEFATMiddle Eocene (Lutetian) Globigerinoides higginsi                                                   DEFIN6
P608054001500 1 21502015019POSATMiddle Eocene (Lutetian) Morozovella aragonensis                                                    DEFIN5
P608054001500 1 21513815137DEFATMiddle Eocene (Lutetian) Morozovella aragonensis                                                    DEFIN5
P608054001500 1 21513915138DEFATLower Eocene (Ypresian) Morozovella aequa                                                           DEFIN5
P608054001500 1 21514015139DEFATLower Eocene (Ypresian) Morozovella edgari                                                          DEFIN5
P608054001500 1 21706017058DEFATLower Eocene (Ypresian) Subbotina velascoensis                                                      DEFIN4
P608054001500 1 21883018825DEFATUpper Paleocene (Thanetian) Subbotina triloculinoides                                               DEFIN5
P608054001500 1 21892018915DEFINPaleocene                                                                                           DEFIN5
P608054001500 1 22000019993DEFATLower Paleocene (Danian) Parasubbotina pseudobulloides                                              POSAT4
P608054001500 1 22002920022POSINLower Paleocene Danian Stage                                                                        POSAT4
P608054001500 2 21292012919DEFATUpper Oligocene (Chattian) Sphenolithus ciperoensis                                                 DEFAT 
P608054001500 2 21304013039DEFATUpper Oligocene (Chattian) Sphenolithus distentus                                                   DEFAT 
P608054001500 2 21310013099DEFATUpper Oligocene (Chattian) Sphenolithus predistentus                                                DEFAT 
P608054001500 2 21322013219DEFATLower Oligocene (Rupelian) Sphenolithus pseudoradians                                               DEFAT 
P608054001500 2 21358013579DEFATLower Oligocene (Rupelian) Ericsonia formosa                                                        DEFAT 
P608054001500 2 21412014119DEFATUpper Eocene (Priabonian) Discoaster barbadiensis                                                   DEFAT 
P608054001500 2 21412114120DEFATUpper Eocene (Priabonian) Discoaster saipanensis                                                    DEFAT 
P608054001500 2 21457014569DEFATUpper Eocene (Priabonian) Sphenolithus obtusus                                                      DEFAT 
P608054001500 2 21466014659DEFATMiddle Eocene (Bartonian) Chiasmolithus grandis                                                     DEFAT 
P608054001500 2 21495914958DEFATMiddle Eocene (Lutetian) Blackites gladius                                                          DEFAT 
P608054001500 2 21496014959DEFATMiddle Eocene (Lutetian) Nannotetrina fulgens                                                       DEFAT 
P608054001500 2 21502515024DEFATLower Eocene (Ypresian) Rhabdosphaera inflata                                                       DEFAT 
P608054001500 2 21503515034DEFATMiddle Eocene (Lutetian) Discoaster lodoensis                                                       DEFAT 
P608054001500 2 21505015049POSATLower Eocene (Ypresian) Tribrachiatus orthostylus                                                   DEFAT 
P608054001500 2 21513915138DEFATLower Eocene (Ypresian) Discoaster multiradiatus                                                    DEFAT 
P608054001500 2 21514015139DEFATLower Eocene (Ypresian) Tribrachiatus bramlettei                                                    DEFAT 
P608054001500 2 21517015169POSATLower Eocene (Ypresian) Discoaster mahmoudi                                                         DEFAT 
P608054001500 2 21694016938POSATLower Eocene (Ypresian) Fasciculithus involutus                                                     DEFAT 
P608054001500 2 21889018885DEFINUpper Paleocene (Thanetian) Subbotina triloculinoides                                               DEFAT 
P608054001500 2 21904019035DEFATUpper Paleocene (Selandian) Neochiastozygus saepes                                                  DEFAT 
P608054001500 2 22000019993POSATLower Paleocene (Danian) Praemurica trinidadensis                                                   DEFAT 
P608054001500 2 22049020482DEFINLower Paleocene (Danian) Praemurica trinidadensis                                                   DEFAT 
P608054001700 1 21266612654DEFINOligocene                                                                                           DEFAT6
P608054001700 1 21269012678DEFATUpper Oligocene (Chattian) Paragloborotalia opima opima                                             DEFAT6
P608054001700 1 21350013484DEFATLower Oligocene (Rupelian) Turborotalia ampliapertura                                               DEFAT6
P608054001700 1 21473014712DEFATUpper Eocene (Priabonian) Turborotalia cerroazulensis cocoaensis                                    DEFAT6
P608054001700 1 21479014772DEFINUpper Eocene (Priabonian) Globigerinatheka tropicalis                                               DEFAT6
P608054001700 1 21485014832POSATUpper Eocene (Priabonian) Globigerinatheka semiinvoluta                                             DEFAT6
P608054001700 1 21488014862DEFATUpper Eocene (Priabonian) Globigerinatheka mexicana                                                 DEFAT6
P608054001700 1 21505715039DEFATMiddle Eocene (Bartonian) Acarinina spinuloinflata                                                  DEFAT6
P608054001700 1 21505815040DEFATMiddle Eocene (Bartonian) Truncorotaloides rohri                                                    DEFAT6
P608054001700 1 21505915041DEFATMiddle Eocene (Bartonian) Acarinina bullbrooki                                                      DEFAT6
P608054001700 1 21506015042POSATMiddle Eocene (Bartonian) Radiolarian acme A                                                        DEFAT6
P608054001700 1 21518015162POSATMiddle Eocene (Lutetian) Globigerinoides higginsi                                                   DEFAT6
P608054001700 1 21545015432DEFATLower Eocene (Ypresian) Morozovella quetra                                                          DEFIN5
P608054001700 1 21581015792DEFATLower Eocene (Ypresian) Subbotina velascoensis                                                      DEFIN5
P608054001700 1 21584015822POSATLower Eocene (Ypresian) Radiolarian acme C                                                          DEFIN5
P608054001700 1 21836018316POSINLower Eocene (Ypresian) Morozovella acuta                                                           DEFIN5
P608054001700 1 21879518704POSATUpper Paleocene (Thanetian) Subbotina triloculinoides                                               DEFIN5
P608054001700 2 21266612654DEFINLower Oligocene (Rupelian) Helicosphaera compacta                                                   DEFAT 
P608054001700 2 21278012767DEFATLower Oligocene (Rupelian) Sphenolithus pseudoradians                                               DEFAT 
P608054001700 2 21364013623DEFATLower Oligocene (Rupelian) Reticulofenestra umbilica                                                DEFAT 
P608054001700 2 21383013813DEFATLower Oligocene (Rupelian) Ericsonia formosa                                                        DEFAT 
P608054001700 2 21422014202DEFATLower Oligocene (Rupelian) Ismolithus recurvus                                                      DEFAT 
P608054001700 2 21443014412DEFATUpper Eocene (Priabonian) Cribrocentrum reticulatum                                                 DEFAT 
P608054001700 2 21446014442DEFATUpper Eocene (Priabonian) Discoaster barbadiensis                                                   DEFAT 
P608054001700 2 21488014862DEFATUpper Eocene (Priabonian) Sphenolithus obtusus                                                      DEFAT 
P608054001700 2 21521015192DEFATMiddle Eocene (Bartonian) Chiasmolithus grandis                                                     DEFAT 
P608054001700 2 21524015222DEFATMiddle Eocene (Lutetian) Blackites gladius                                                          DEFAT 
P608054001700 2 21542015402DEFATLower Eocene (Ypresian) Rhabdosphaera inflata                                                       DEFAT 
P608054001700 2 21545015432DEFATMiddle Eocene (Lutetian) Discoaster lodoensis                                                       DEFAT 
P608054001700 2 21550915491DEFATLower Eocene (Ypresian) Discoaster kuepperi                                                         DEFAT 
P608054001700 2 21551015492DEFATLower Eocene (Ypresian) Discoaster multiradiatus                                                    DEFAT 
P608054001700 2 21569015672DEFATLower Eocene (Ypresian) Tribrachiatus bramlettei                                                    DEFAT 
P608054001700 2 21617016152DEFATLower Eocene (Ypresian) Fasciculithus involutus                                                     DEFAT 
P608054001700 2 21668016662POSATLower Eocene (Ypresian) Prinsius bisulcus                                                           DEFAT 
P608054001700 2 21674016722POSATLower Eocene (Ypresian) Prinsius martinii                                                           DEFAT 
P608054001700 2 21677016751POSATLower Eocene (Ypresian) Fasciculithus tympaniformis                                                 DEFAT 
P608054001700 2 21734017321POSATUpper Paleocene (Thanetian) Fasciculithus ullii                                                     DEFAT 
P608054001700 2 21761017589POSATUpper Paleocene (Selandian) Fasciculithus chowii                                                    DEFAT 
P608054001700 2 21830018259POSATUpper Paleocene (Thanetian) Heliolithus kleinpellii                                                 DEFAT 
P608054001700 2 21926019070POSATUpper Paleocene (Thanetian) Fasciculithus billii                                                    DEFAT 
P608054001700 2 21932019112POSINUpper Paleocene (Thanetian) Heliolithus riedelli                                                    DEFAT 
P608054001700 2 21947019216POSATUpper Paleocene (Selandian) Discoaster diastypus                                                    DEFAT 
P608054002600 1 11004010040POSATUpper Oligocene (Chattian) Globigerina ciperoensis ciperoensis                                      DEFAT5
P608054002600 1 11005010050DEFATUpper Oligocene (Chattian) Globigerina angulisuturalis                                              DEFAT5
P608054002600 1 11007010070DEFATUpper Oligocene (Chattian) Globigerina sellii                                                       DEFAT5
P608054002600 1 11008010080DEFATUpper Oligocene (Chattian) Paragloborotalia opima opima                                             DEFAT5
P608054002600 1 11051010510DEFATLower Oligocene (Rupelian) Globigerina gortani                                                      POSAT3
P608054002600 1 11103011029POSATLower Oligocene (Rupelian) Turborotalia ampliapertura                                               DEFAT5
P608054002600 1 11109011089POSATLower Oligocene (Rupelian) Cibicides pippeni                                                        POSAT3
P608054002600 1 11139011389DEFATLower Oligocene (Rupelian) Turborotalia increbescens                                                DEFAT5
P608054002100 1 11317613173DEFINLower Oligocene (Rupelian) Reticulofenestra hillae                                                  DEFAT 
P608054002100 1 11329013287DEFATLower Oligocene (Rupelian) Ericsonia formosa                                                        DEFAT 
P608054002100 1 11371013707DEFATLower Oligocene (Rupelian) Ismolithus recurvus                                                      DEFAT 
P608054002100 1 11383013827DEFATUpper Eocene (Priabonian) Cribrocentrum reticulatum                                                 DEFAT 
P608054002100 1 11389013887DEFATUpper Eocene (Priabonian) Discoaster barbadiensis                                                   DEFAT 
P608054002100 1 11389113888DEFATUpper Eocene (Priabonian) Discoaster saipanensis                                                    DEFAT 
P608054002100 1 11419014186DEFATMiddle Eocene (Bartonian) Sphenolithus radians                                                      DEFAT 
P608054002100 1 11428014276DEFATUpper Eocene (Priabonian) Sphenolithus obtusus                                                      DEFAT 
P608054002100 1 11461014606DEFATMiddle Eocene (Bartonian) Sphenolithus spiniger                                                     DEFAT 
P608054002100 1 11494014936DEFATMiddle Eocene (Lutetian) Discoaster lodoensis                                                       DEFAT 
P608054002100 1 11500014996POSATLower Eocene (Ypresian) Toweius crassus                                                             DEFAT 
P608054002100 1 11509015086DEFATLower Eocene (Ypresian) Discoaster multiradiatus                                                    DEFAT 
P608054002400 1 21503015030DEFATUpper Oligocene (Chattian) Globigerina ciperoensis ciperoensis                                      DEFAT5
P608054002400 1 21509015090DEFATUpper Oligocene (Chattian) Globigerina angulisuturalis                                              DEFAT5
P608054002400 1 21511815118DEFATUpper Oligocene (Chattian) Paragloborotalia opima opima                                             DEFAT5
P608054002400 1 21511915119DEFATLower Oligocene (Rupelian) Globigerina gortani                                                      DEFAT5
P608054002400 1 21512015120DEFATLower Oligocene (Rupelian) Globigerina tapuriensis                                                  DEFAT5
P608054002400 1 21539015390POSATLower Oligocene (Rupelian) Nonion struma                                                            DEFAT5
P608054002400 1 21596015960DEFATLower Oligocene (Rupelian) Turborotalia ampliapertura                                               DEFAT5
P608054002400 1 21656016559DEFINLower Oligocene (Rupelian) Turborotalia ampliapertura                                               DEFAT5
P608054002400 1 21666016659DEFATLower Oligocene (Rupelian) Turborotalia increbescens                                                DEFAT5
P608054002400 1 21701017009DEFATUpper Eocene (Priabonian) Bulimina jacksonensis                                                     DEFAT5
P608054002400 1 21812018119DEFATUpper Eocene (Priabonian) Subbotina linaperta                                                       DEFAT4
P608054002400 1 21817918178DEFATUpper Eocene (Priabonian) Turborotalia cerroazulensis cocoaensis                                    DEFAT4
P608054002400 1 21818018179DEFATUpper Eocene (Priabonian) Globorotalia pomeroli                                                     DEFAT4
P608054002400 1 21824018239DEFATUpper Eocene (Priabonian) Globigerinatheka semiinvoluta                                             DEFAT4
P608054002400 1 21830018299DEFINUpper Eocene (Priabonian) Globigerinatheka semiinvoluta                                             DEFAT5
P608054002400 1 21836018359DEFATUpper Eocene (Priabonian) Globigerinatheka mexicana                                                 DEFAT5
P608054002400 1 21844718446DEFATUpper Eocene (Priabonian) Globigerinatheka barri                                                    DEFAT5
P608054002400 1 21844818447DEFATMiddle Eocene (Bartonian) Acarinina spinuloinflata                                                  DEFAT5
P608054002400 1 21844918448DEFATMiddle Eocene (Bartonian) Truncorotaloides rohri                                                    DEFAT5
P608054002400 1 21845018449DEFATMiddle Eocene (Bartonian) Morozovella lehneri                                                       DEFAT5
P608054002400 1 21847818477DEFATMiddle Eocene (Bartonian) Truncorotaloides topilensis                                               DEFAT5
P608054002400 1 21847918478DEFATMiddle Eocene (Bartonian) Acarinina bullbrooki                                                      DEFAT5
P608054002400 1 21848018479DEFATMiddle Eocene (Bartonian) Radiolarian acme A                                                        DEFAT5
P608054002400 1 21854018539DEFATMiddle Eocene (Bartonian) Turborotalia frontosa                                                     DEFAT5
P608054002400 1 21916919168DEFATMiddle Eocene (Lutetian) Globigerinoides higginsi                                                   DEFAT5
P608054002400 1 21917019169DEFATMiddle Eocene (Lutetian) Morozovella aragonensis                                                    DEFAT5
P608054002400 1 21979919798DEFATLower Eocene (Ypresian) Acarinina soldadoensis                                                      DEFAT4
P608054002400 1 21980019799DEFATLower Eocene (Ypresian) Acarinina wilcoxensis                                                       DEFAT4
P608054002400 1 22260022599DEFATLower Eocene (Ypresian) Rzehakina epigona                                                           DEFAT4
P608054002400 2 21506015060DEFATUpper Oligocene (Chattian) Dictyococcites bisectus                                                  DEFAT 
P608054002400 2 21509015090DEFATUpper Oligocene (Chattian) Sphenolithus ciperoensis                                                 DEFAT 
P608054002400 2 21512015120DEFINUpper Oligocene (Chattian) Sphenolithus ciperoensis                                                 DEFAT 
P608054002400 2 21515015150DEFATUpper Oligocene (Chattian) Sphenolithus distentus                                                   DEFAT 
P608054002400 2 21518015180DEFATUpper Oligocene (Chattian) Sphenolithus predistentus                                                DEFAT 
P608054002400 2 21524015240DEFATLower Oligocene (Rupelian) Helicosphaera compacta                                                   DEFAT 
P608054002400 2 21533015330DEFATLower Oligocene (Rupelian) Sphenolithus pseudoradians                                               DEFAT 
P608054002400 2 21641016409DEFATLower Oligocene (Rupelian) Discoaster nodifer                                                       DEFAT 
P608054002400 2 21656016559POSATLower Oligocene (Rupelian) Ismolithus recurvus                                                      DEFAT 
P608054002400 2 21668016679DEFINLower Oligocene (Rupelian) Ericsonia formosa                                                        DEFAT 
P608054002400 2 21800017999DEFATUpper Eocene (Priabonian) Discoaster saipanensis                                                    DEFAT 
P608054002400 2 21806018059DEFATUpper Eocene (Priabonian) Discoaster barbadiensis                                                   DEFAT 
P608054002400 2 21812018119DEFATUpper Eocene (Priabonian) Cribrocentrum reticulatum                                                 DEFAT 
P608054002400 2 21836018359DEFATUpper Eocene (Priabonian) Sphenolithus obtusus                                                      DEFAT 
P608054002400 2 21854018539DEFATUpper Eocene (Priabonian) Pemma papillatum                                                          DEFAT 
P608054002400 2 21881018809DEFATMiddle Eocene (Bartonian) Chiasmolithus grandis                                                     DEFAT 
P608054002400 2 21905019049POSATMiddle Eocene (Bartonian) Sphenolithus spiniger                                                     DEFAT 
P608054002400 2 21914019139DEFATMiddle Eocene (Bartonian) Chiasmolithus solitus                                                     DEFAT 
P608054002400 2 21917019169DEFATMiddle Eocene (Lutetian) Discoaster sublodoensis                                                    DEFAT 
P608054002400 2 21926019259DEFATLower Eocene (Ypresian) Rhabdosphaera inflata                                                       DEFAT 
P608054002400 2 21929019289POSATLower Eocene (Ypresian) Toweius crassus                                                             DEFAT 
P608054002400 2 21944019439DEFATMiddle Eocene (Lutetian) Discoaster lodoensis                                                       DEFAT 
P608054002400 2 21947019469DEFATLower Eocene (Ypresian) Chiasmolithus californicus                                                  DEFAT 
P608054002400 2 21968019679DEFATLower Eocene (Ypresian) Discoaster multiradiatus                                                    DEFAT 
P608054002400 2 21974019739DEFATLower Eocene (Ypresian) Toweius eminens                                                             DEFAT 
P608054002400 2 21974119740DEFATLower Eocene (Ypresian) Chiasmolithus bidens                                                        DEFAT 
P608054002400 2 21980019799DEFINLower Eocene (Ypresian) Chiasmolithus bidens                                                        DEFAT 
P608054002400 2 22154021539DEFATLower Eocene (Ypresian) Fasciculithus tympaniformis                                                 DEFAT 
P608054002400 2 22215822157DEFATLower Eocene (Ypresian) Toweius pertusus                                                            DEFAT 
P608054002400 2 22215922158DEFATLower Eocene (Ypresian) Discoaster multiradiatus                                                    DEFAT 
P608054002400 2 22216022159DEFATLower Eocene (Ypresian) Toweius eminens                                                             DEFAT 
P608184001100 1 1 994509944DEFATUpper Oligocene (Chattian) Dictyococcites bisectus                                                  DEFIN6
P608184001100 1 11561415613DEFATUpper Oligocene (Chattian) Sphenolithus predistentus                                                DEFAT6
P608184001100 1 11561515614DEFATUpper Oligocene (Chattian) Paragloborotalia opima opima                                             DEFAT6
P608184001100 1 11562915628DEFATLower Oligocene (Rupelian) Discoaster nodifer                                                       DEFAT6
P608184001100 1 11563015629DEFATLower Oligocene (Rupelian) Turborotalia increbescens                                                DEFAT6
P608184001100 1 11566015659DEFATLower Oligocene (Rupelian) Reticulofenestra umbilica                                                DEFAT5
P608184001100 1 11569015689DEFATLower Oligocene (Rupelian) Ericsonia formosa                                                        DEFAT6
P608184001100 1 11570415703DEFATUpper Eocene (Priabonian) Sphenolithus obtusus                                                      DEFAT6
P608184001100 1 11570515704DEFATMiddle Eocene (Bartonian) Chiasmolithus grandis                                                     DEFAT6
P608184001100 1 11575015749DEFATMiddle Eocene (Bartonian) Chiasmolithus solitus                                                     DEFAT6
P608184001100 1 11578015779DEFATMiddle Eocene (Bartonian) Sphenolithus radians                                                      DEFAT6
P608184001100 1 11580915808DEFATMiddle Eocene (Lutetian) Chiasmolithus gigas                                                        DEFIN6
P608184001100 1 11581015809DEFATMiddle Eocene (Lutetian) Morozovella aragonensis                                                    DEFIN6
P608184001100 1 11584015839POSINLower Eocene (Ypresian) Discoaster multiradiatus                                                    DEFIN6
P608184001100 1 11592915928DEFATLower Eocene (Ypresian) Fasciculithus tympaniformis                                                 DEFIN6
P608184001100 1 11593015929DEFATLower Eocene (Ypresian) Morozovella velascoenesis                                                   DEFIN6
P608184001100 1 11603416033DEFATUpper Paleocene (Thanetian) Heliolithus riedelli                                                    DEFIN6
P608184001100 1 11603516034DEFATUpper Paleocene (Thanetian) Heliolithus kleinpellii                                                 DEFIN6
P608184001100 1 11604916048DEFATUpper Paleocene (Thanetian) Prinsius martinii increase                                              DEFIN6
P608184001100 1 11605016049POSATUpper Paleocene (Selandian) Planorotalites compressa                                                DEFIN6
P608184001100 1 11608016079POSATLower Paleocene (Danian) Parvularugoglobigerina eugubina                                            DEFIN6
P608184001100 1 11614016139DEFATLower Paleocene (Danian) Hornibrookina edwardsii                                                    DEFIN6
P608184003406 1 11946019232DEFATUpper Oligocene (Chattian) Dictyococcites bisectus                                                  DEFIN5
P608184002600 1 22108920820DEFATUpper Oligocene (Chattian) Paragloborotalia opima opima                                             DEFAT5
